:020000040800F2
:10000000E0D20120B5010008BD010008BF010008D1
:10001000C1010008C3010008C5010008000000007C
:10002000000000000000000000000000C701000800
:10003000C901000800000000CB0100087D2900086C
:10004000CF010008CF010008CF010008CF01000850
:10005000CF010008CF010008CF010008CF01000840
:10006000CF010008CF010008CF010008CF01000830
:10007000CF010008CF010008CF010008CF01000820
:10008000CF010008CF010008CF010008CF01000810
:10009000CF010008CF010008CF010008CF01000800
:1000A000CF010008CF010008CF010008CF010008F0
:1000B000CF010008CF010008CF010008CF010008E0
:1000C000CF010008CF010008CF010008CF010008D0
:1000D000CF010008CF010008CF010008CF010008C0
:1000E000CF010008CF010008CF010008CF010008B0
:1000F000CF010008CF010008CF010008CF010008A0
:10010000CF010008950F0008CF010008CF010008BB
:10011000CF010008CF010008CF010008CF0100087F
:10012000CF010008CF010008CF010008CF0100086F
:10013000CF010008CF010008CF010008CF0100085F
:10014000CF010008CF010008CF010008CF0100084F
:10015000CF010008CF010008CF010008CF0100083F
:10016000CF010008CF010008CF010008CF0100082F
:10017000CF010008CF010008CF010008CF0100081F
:10018000CF010008CF010008DFF810D000F0A6F87A
:1001900000480047F5430008AFF30080E0D201209B
:1001A00030BF72B6704762B67047000080F30888AF
:1001B000704700000648804706480047FEE7FEE714
:1001C000FEE7FEE7FEE7FEE7FEE7FEE7FEE7FEE707
:1001D0008D290008890100082DE9F0410024061B43
:1001E000254671F1000605DA01240027D0EB07004F
:1001F00067EB0101161E73F1000605DA0027D2EB4A
:100200000702012567EB030300F036F886460E4629
:1002100017469C46AC4204D00025D0EB050E65EB9A
:10022000010624B10020D2EB000760EB030C7046FE
:1002300031463A466346BDE8F08140EA01039B0738
:1002400003D009E008C9121F08C0042AFAD203E04B
:1002500011F8013B00F8013B521EF9D2704730B54E
:1002600004460020034600E05B1C934203D2E05C9E
:10027000CD5C401BF8D030BD2DE9F05F0546002075
:1002800092469B4688460646814640241BE0284607
:1002900041464746224600F042F853465A46C01AA5
:1002A000914110D311461846224600F029F82D1A24
:1002B00067EB01084F4622460120002100F020F89C
:1002C00017EB00094E41201EA4F10104DFDC484673
:1002D00031462A464346BDE8F09F0000064C074DD4
:1002E00006E0E06840F0010394E807009847103406
:1002F000AC42F6D3FFF74CFFCC4D0008EC4D0008A4
:10030000202A04DB203A00FA02F1002070479140D5
:10031000C2F1200320FA03F3194390407047202ACA
:1003200004DB203A21FA02F00021704721FA02F39F
:10033000D040C2F12002914008431946704770B581
:1003400000254FF4803404E0802000F00FFE00B15F
:1003500003E0201EA4F10104F6D100BF0CB9032074
:1003600070BD40F2FF5000F0D7FD2846F8E70000CE
:1003700070B5044605E01648056805F0450000B173
:1003800000E0F8E700BF042000F0F0FD20B10420F9
:1003900000F0C2FD032070BD012000F0E7FD20B198
:1003A000012000F0B9FD0120F5E709482438006874
:1003B000A04201D01020EEE740F2FF5000F0ACFD6B
:1003C00003482038006808210840C0B2E3E7000075
:1003D000342C014070B500264FF4803505E01148FB
:1003E000046804F0450000B103E0281EA5F10105F2
:1003F000F5D100BF15B104F0040028B10326042094
:1004000000F08AFD304670BD012000F0AFFD18B14C
:100410000126012000F080FD40F2FF5000F07CFD3D
:100420003046F0E7342C014010B505E00B48046875
:1004300004F0450000B100E0F8E700BF042000F040
:1004400095FD20B1042000F067FD032010BD40F2AF
:10045000FF5000F061FD0020F8E70000342C01405F
:100460002DE9F04105460E464FF0000805E0204812
:10047000076807F0450000B100E0F8E700BF04207E
:1004800000F074FD28B1042000F046FD0320BDE813
:10049000F081012000F06AFD20B1012000F03CFD58
:1004A0000120F4E7124824380068A84201D0102047
:1004B000EDE740F2FF5000F02FFD0D4820380468B2
:1004C00004F4604018B9200C30804046DFE704F4A3
:1004D000005008B11320DAE704F4804008B110207E
:1004E000D5E704F4004008B10F20D0E74046CEE73E
:1004F000342C014070B500264FF4803505E00F48DC
:10050000046804F0450000B103E0281EA5F10105D0
:10051000F5D100BF15B104F0040028B10326042072
:1005200000F0FAFC304670BD04F0400018B100261F
:10053000402000F0F1FC3046F5E70000342C01408B
:1005400021B1026842F00102026003E0026822F079
:100550000102026070470000016821F001010160A2
:100560000021016041608160C16001612121416120
:100570004A49884204D13D21484A103A91608CE0B2
:1005800046491831884205D14FF47461434A103A04
:10059000916082E041493031884205D14FF47411B5
:1005A0003E4A103A916078E03C494831884205D192
:1005B0004FF07461394A103A91606EE0374960310A
:1005C000884204D13649354A103AD16065E0334952
:1005D0007831884204D13349304A103AD1605CE026
:1005E0002E499031884204D12F492C4A103AD160CB
:1005F00053E02A49A831884205D14FF03D51274A9E
:10060000103AD16049E02949884204D13D21274A66
:10061000083A116041E025491831884205D14FF46C
:100620007461224A083A116037E02049303188422B
:1006300005D14FF474111D4A083A11602DE01B4991
:100640004831884205D14FF07461184A083A116068
:1006500023E016496031884204D11149134A121F20
:1006600011601AE011497831884204D10D490F4ACE
:10067000121F116011E00D499031884204D10A49DE
:100680000A4A121F116008E00849A831884204D1C3
:100690004FF03D51054A121F116070471060024033
:1006A0003D000020400F002000003D20106402406B
:1006B00021B1026842F02002026003E0026822F0E9
:1006C000200202607047014600200A6802F0010221
:1006D0000AB1012000E000207047000010B50022A0
:1006E0000268134B1A40CC680B6823434C692343C0
:1006F0008C692343CC6923430C6A23434C6A23430C
:100700008C6A23434C6B23438C6B23431A43026054
:10071000426922F00702D1E90B3423431A434261B4
:100720000B6943604B6883608B68C36010BD000039
:100730003F801CF070B504460A460026092502B920
:1007400009E0012A01D1160205E0022A01D11602B0
:1007500001E04FF4407600F0C3F80546092D28D19A
:100760001548006820F44070134908600846006886
:10077000304308600846006820F0F800086008462A
:10078000006844F0020108430B490860084600680D
:1007900040F48030086000F0A3F805460648006881
:1007A00020F00200044908600846006820F0F800C4
:1007B0000860284670BD0000103C02400920134923
:1007C000096801F48031B1F5803F01D101201CE0BE
:1007D0000E49096801F0100109B1062015E00B4926
:1007E000096801F4807109B102200EE00749096827
:1007F00001F0E00109B1072007E00449096801F0B0
:10080000020109B1082000E0092070470C3C0240B9
:100810000348006840F0004001490860704700004C
:10082000103C02402DE9F04106460C4617460BE00D
:1008300014F8011B3046761C00F00EF80546092D11
:1008400002D02846BDE8F081381EA7F101018FB221
:10085000EED10920F6E7000030B502460C46092526
:1008600000F03EF80546092D17D10D48006820F428
:1008700040700B4908600846006808600846006838
:1008800040F001000860147000F02AF805460448A2
:10089000006820F0010002490860284630BD0000D1
:1008A000103C024010B503E010F8013B01F8013B99
:1008B000131EA2F10104A2B2F6D110BD05480068D2
:1008C00000F0004028B1044802490C390860034890
:1008D00008607047103C024023016745AB89EFCDAB
:1008E00008B509200090FFF769FF009002E0FFF7CC
:1008F00065FF00909DF800000128F8D09DF80000E9
:1009000008BD00002DE9FC4107460D4600260024E5
:1009100000200090019008205B490860102048608A
:10092000402088600020C8604FF48060086108465D
:1009300000F068FB1020FFF71BFD044614B12046B1
:10094000BDE8FC815148008800044F490860372009
:100950004860402088600020C8604FF480600861D3
:10096000084600F04FFB3720FFF702FD04460CB1AC
:100970002046E5E74FF0FF30454908600820486011
:10098000302088600220C860002008610120486192
:10099000084600F0D1FA00203B4908603320486047
:1009A000402088600020C8604FF4806008610846DD
:1009B00000F028FB3320FFF7DBFC04460CB1204697
:1009C000BEE70CE04FF4001000F0D0FA38B1314827
:1009D00000684DF82600761C022E00D307E02D4853
:1009E0004C38006840F22A6108400028EAD000BF75
:1009F000082000F0BBFA20B1082000F08DFA042096
:100A00009EE7022000F0B2FA20B1022000F084FA42
:100A1000022095E7202000F0A9FA20B1202000F064
:100A20007BFA06208CE74FF4007000F09FFA28B1A3
:100A30004FF4007000F070FA072081E740F2FF5099
:100A400000F06AFA00980006009901F47F4140EA3C
:100A50000120009901F47F0140EA1120009940EA49
:100A60001160686001980006019901F47F4140EA35
:100A70000120019901F47F0140EA1120019940EA27
:100A80001160286020465BE7E82200202800002053
:100A9000FC220020802C0140F0B50A4600210023F2
:100AA000002400BF3DE0012505FA01F3156805EAC1
:100AB00003049C4234D105684F000326BE40B54371
:100AC000056015794E00B540066835430560157917
:100AD000012D02D01579022D16D185684F0003260D
:100AE000BE40B543856055794E00B54086683543B4
:100AF0008560456801268E40B54345604568967916
:100B00008E40B6B235434560C5684F000326BE40EF
:100B1000B543C560D5794E00B540C6683543C5605C
:100B2000491C1029BFD3F0BDF0B5002300244D07A8
:100B3000ED0E02FA05F3CE1000F1200555F826500F
:100B40004E07F70E0F26BE40B543CF1000F120062A
:100B500046F82750CE1000F1200555F8265045EAFA
:100B60000304CE1000F1200545F82640F0BD00003A
:100B70001CB5044600200190009022480088000423
:100B8000214908600D204860402088600020C8602E
:100B90004FF480600861084600F034FA1B48006892
:100BA000009002E0194800680090009800F04500AD
:100BB0000028F7D0012000F0D9F920B1012000F081
:100BC000ABF901201CBD042000F0D0F920B10420B5
:100BD00000F0A2F90320F5E70C48243800680D283E
:100BE00001D01020EEE740F2FF5000F095F90748E1
:100BF0002038006801900198C0F343202070002045
:100C0000E0E7000028000020E8220020342C01400A
:100C100008B54FF4407000F051F80221C81E00F0F2
:100C200057F825208DF8000002208DF801000020E3
:100C30008DF8020001208DF80300684600F002F8EC
:100C400008BD000070B5002100230F22C4781CB33A
:100C5000174C246804F4E064C4F5E064C4F307218D
:100C6000C1F10404E3B20A4144789C40E1B28478C3
:100C7000144021430C07210E0E4C05786155047871
:100C800004F01F050124AC4005786D11AD0005F19D
:100C9000E025C5F8004109E0047804F01F050124AF
:100CA000AC40054D0678761145F8264070BD000031
:100CB0000CED00E000E400E080E100E002490143C7
:100CC000024A1160704700000000FA050CED00E0D8
:100CD00010B5002807DA0A07140E054A00F00F03C2
:100CE0001B1FD45403E00A07130E024A135410BD0D
:100CF00018ED00E000E400E029B1064A1268024362
:100D0000044B1A6004E0034A12688243014B1A60E4
:100D1000704700003038024029B1064A1268024389
:100D2000044B1A6004E0034A12688243014B1A60C4
:100D3000704700004438024029B1064A1268024355
:100D4000044B1A6004E0034A12688243014B1A60A4
:100D5000704700002438024010B500F07FF80349C6
:100D60000870034800F006F810BD000020000020C5
:100D7000C0220020F0B50021002200240225002618
:100D80000223324F3F6807F00C0121B1042905D03E
:100D9000082937D105E02E4F076036E02D4F076058
:100DA00033E02A4F3F1F3F68C7F38056274F3F1F4E
:100DB0003F6807F03F036EB1264FB7FBF3F7DFF84C
:100DC0008CC0ACF1040CDCF800C0CCF3881C07FB31
:100DD0000CF40CE01E4FB7FBF3F7DFF870C0ACF17A
:100DE000040CDCF800C0CCF3881C07FB0CF4174F94
:100DF0003F1F3F68C7F301477F1C7D00B4FBF5F739
:100E0000076002E0124F076000BF00BF0F4F3F684E
:100E100007F0F0010909104F7A5C0768D740476076
:100E20000A4F3F6807F4E051890A0B4F7A5C476824
:100E3000D7408760054F3F6807F46041490B064F74
:100E40007A5C4768D740C760F0BD000008380240B0
:100E50000024F40000127A007400002002480068A8
:100E600000F00C0070470000083802407CB50546D1
:100E7000002400200090019000260DB1022600E021
:100E800000262248006800F0007008B10E207CBDEA
:100E90001F49098888B26946FFF734FD04460CB142
:100EA0002046F4E7019800F4802060B318480088D9
:100EB00000041849086037204860402088600020FE
:100EC000C8604FF480600861084600F09BF8372046
:100ED000FFF74EFA04460CB12046D8E70D480660ED
:100EE00006200C494860402088600020C8604FF40C
:100EF00080600861084600F085F80620FFF738FAA0
:100F000004462046C3E72520C1E70000142C014019
:100F100028000020E82200200149086070470000F6
:100F2000382C01400146034A106820F0FF000843B6
:100F300010607047042C014000210B4B02681A60BE
:100F40001B1D42681A601A1D116821F0F701D0E9D3
:100F500002231A4303691A4343691A431143024A9D
:100F60000832116070470000242C01400146002027
:100F7000034A12680A400AB1012000E000207047CD
:100F8000342C01400248006800F003007047000064
:100F9000002C014010B500F07DFC10BD00210A4A74
:100FA000116847F6FF629143027D83681A434368E4
:100FB0001A43C3681A4303681A4303691A43114367
:100FC000014A116070470000042C014000200B49C9
:100FD0000860091D0860091D0860091D08600749AF
:100FE00024310860091D0860091D08600448034990
:100FF000383108600020091D08607047002C01404E
:10100000FF07C0000021094B02681A601A1D116811
:101010006FF30A01D0E901231A43C3681A43036935
:101020001A431143014A121D11607047082C0140F8
:101030000149086070470000002C014070B590B075
:1010400004460E46154600BF1A48FFF73CFB002831
:10105000FAD11848FFF780FA4FF000600190164867
:101060000290039404950020059006904FF4806050
:101070000790800008908000099000200A904FF4AB
:1010800040300B9004200C9003200D904FF4000092
:101090000E9080100F9001A90648FFF71FFB20213A
:1010A0000448FFF705FB01210248FFF749FA10B099
:1010B00070BD000058640240802C014070B50446A9
:1010C000002516480078032802D12725284670BD40
:1010D0001248007838B111480078012803D00F4831
:1010E0000078022817D1B4F5805F02D12725284661
:1010F000EDE7E0B2FFF7BAFE054665B908480068BB
:1011000020F4C05006490860084600682043086083
:101110000846006808602846D9E70000240000203F
:10112000042C0140F0B5014600200022BD4B1B7885
:1011300081F85630BC4B1B88A1F85430BB4B1B6860
:101140001A0E93090B70C2F383034B7002F0030372
:101150008B70B64B1B68C3F30742CA70B34B1B8836
:10116000C3F307220A71B14B1A784A715B681A0EF1
:101170001301CB80AD4B5B68C3F30742CB8843EAD6
:101180001213CB8002F00F030B72A84B9B88C3F3A2
:101190000722D3094B72C2F380138B72C2F3401340
:1011A000CB72C2F300130B7300234B739D4B1B7860
:1011B0003BB19C4B1B78012B03D09A4B1B78032B24
:1011C0004FD193071B0D0B61984B1A790B6943EABA
:1011D00082030B61954B9B681A0E0B6943EA9213CD
:1011E0000B61C2F3C2030B7502F007034B758F4B03
:1011F0009B68C3F3074253098B75C2F38203CB7517
:1012000093075B0F0B76894B1B89C3F307220B7E79
:1012100043EAD2130B760B695B1C0024C1E912343C
:101220000B7E9B1C012606FA03F3DE17D1E912455B
:10123000A4FB037C05FB03C304FB0633C1E9127363
:101240000C7A0123A3400B650024D1E912560B6DE3
:10125000A5FB037C06FB03C305FB0433C1E9127342
:101260002CE0704B1B78022B28D1704B1A79930617
:101270009B0A0B616D4B9B681A0E0B6943EA0223B4
:101280000B616A4B9B68C3F307420B6913430B6105
:10129000664B1B89C3F307220B695B1C4FF4007478
:1012A000A3FB043566000027A3FB064C05FB06C51F
:1012B00003FB0753C1E9124373100B65C2F380139C
:1012C00001F8193F93065B0E4B70584B1A7A4B7816
:1012D00043EAD2134B7002F07F038B70534BDB68F1
:1012E0001A0ED309CB70C2F341130B71C2F3820300
:1012F0004B7193071B0F8B714C4BDB68C3F3074299
:101300008B7943EA92138B71C2F34013CB710023A4
:101310000B7202F001034B72444B9B89C3F307220B
:10132000D3098B72C2F38013CB72C2F340130B73D9
:10133000C2F300134B73C2F381038B7302F00303F8
:10134000CB733A4B1A7B53080B7401234B74384B05
:101350001B681A0ECA741939354B1B68C3F3074250
:101360001402CC85324B1B88C3F30722CB8D134369
:10137000CB852F4B1A7814060C635B681A0E0B6B27
:1013800043EA02440C632A4B5B68C3F307420B6BCE
:1013900043EA02240C63264B9B88C3F307220B6BA2
:1013A00013430B63224B1A7934235A54204B9B6806
:1013B0001A0E35235A541E4B9B68C3F3074214067A
:1013C0008C631B4B1B89C3F307228B6B43EA0244DC
:1013D0008C63174B1A7A8B6B43EA02248C63144B91
:1013E000DB681A0E8B6B13438B63114BDB68C3F303
:1013F00007423C235B5C43EA12143C235C54130712
:101400001C0DCC870A4B9B89C3F30722CB8F134358
:10141000CB87074B1A7B540840235C54012441239B
:101420005C54F0BD2400002028000020142300207C
:10143000242300203EB5002401213F48FFF75CFC37
:101440000121C802FFF768FC0121C802FFF774FC04
:101450004FF4F850019002208DF808008DF8090033
:1014600000208DF80A0001208DF80B0001A93348F7
:10147000FFF712FB0420019001A93148FFF70CFB94
:101480000C2208212D48FFF74FFB0C2209212B4885
:10149000FFF74AFB0C220A212848FFF745FB0C22E4
:1014A0000B212648FFF740FB0C2211462348FFF78B
:1014B0003BFB0C2202212248FFF736FB00214FF4B0
:1014C0000060FFF739FCFFF781FD31208DF8000047
:1014D00000208DF801008DF8020001208DF8030036
:1014E0006846FFF7AFFB00F0E3F8044614B900F0DC
:1014F0002DF804461CB91348FFF714FE044634B90E
:101500001049B1F85410080400F06CFD044624B9E9
:101510004FF40060FFF7D2FD04461CB10A48007882
:10152000032806D10020FFF7FDFC002000F072FD2B
:10153000044620463EBD00000C004000000802406A
:10154000000C0240382300202400002038B500247D
:1015500001200090FFF716FD10B92524204638BD64
:101560004D480078042824D000204C49086002200F
:101570004860C02088600020C8604FF48060086127
:101580000846FFF73FFDFEF725FF04460CB1204655
:10159000E5E743480068434908604148001D00688A
:1015A00048603F480830006888603D480C3000685B
:1015B000C8603948007858B137480078012807D00A
:1015C00035480078062803D033480078022816D121
:1015D00000203249086003204860402088600020D5
:1015E000C8604FF4806008610846FFF70BFD69464C
:1015F0000320FEF735FF04460CB12046AFE726482E
:101600000078032816D1BDF80000000423490860C3
:1016100003204860402088600020C8604FF480604C
:1016200008610846FFF7EEFCFEF7D4FE04460CB155
:10163000204694E71848007804282AD0BDF8000016
:1016400019490860BDF80000000414490860092029
:101650004860C02088600020C8604FF48060086146
:101660000846FFF7CFFCFEF7B5FE04460CB1204656
:1016700075E70B4800680D4908600948001D0068BF
:101680004860074808300068886005480C300068EA
:10169000C860002063E7000024000020E82200204A
:1016A000142C0140242300202800002014230020B3
:1016B0002DE9F0470027002400260025A046A1467A
:1016C00076206E4908750020086048608860C86010
:1016D00008610846FFF762FC0320FFF7A9FC684891
:1016E000006840F480706649086000BF12E0002086
:1016F0006449086048608860C8604FF48060086191
:101700000846FFF77FFCFEF71AFE044604B903E023
:10171000781CC7B24A2FEADB00BF14B12046BDE8EF
:10172000F0874FF4D5705749086008204860402082
:1017300088600020C8604FF4806008610846FFF7A9
:1017400061FCFEF7D7FE044624B901204E4908701B
:101750004FF0804900204B49086037204860402006
:1017600088600020C8604FF4806008610846FFF779
:1017700049FC3720FEF7FCFD0446002C4CD135E037
:1017800000204049086037204860402088600020E1
:10179000C8604FF4806008610846FFF733FC3720CB
:1017A000FEF7E6FD04460CB12046B8E7374849EAA3
:1017B00000003449086029204860402088600020EB
:1017C000C8604FF4806008610846FFF71BFCFEF715
:1017D0002BFE04460CB12046A1E7294810300668CC
:1017E000012080EAD67080F001086D1CB8F1000F6E
:1017F00003D14FF6FF708542C2D34FF6FF7085428A
:1018000002D31B2420468AE706F08040061E33D010
:1018100002201D4908702FE01DE01D48194908608D
:1018200001204860402088600020C8604FF480603C
:1018300008610846FFF7E6FBFEF7F6FD04460CB12B
:1018400020466CE70E4810300668012080EAD6700A
:1018500080F001086D1CB8F1000F03D14FF6FF7046
:101860008542DAD34FF6FF70854202D31B2420460F
:1018700055E7032004490870204650E7D022002095
:10188000042C0140E82200202400002000001080E9
:101890000080FF8010B54FF48070FFF767FB78B3CE
:1018A0004C480078012814D100204B4908600C20D6
:1018B0004860402088600020C8604FF48060086164
:1018C0000846FFF79FFB0C20FEF752FD43490870C6
:1018D00002E00020414908704148006840F48070EF
:1018E0003F490860081D00684CF23A3188433C4982
:1018F000091D086001203B4908703848007810BD78
:10190000FFE70220FFF732FB78B10220FFF704FB6C
:101910003348001D00684CF23A3188433049091DB4
:10192000086002202D490870E9E70820FFF71EFB38
:1019300078B10820FFF7F0FA2948001D00684CF242
:101940003A3188432649091D08600420234908705C
:10195000D5E72020FFF70AFB78B12020FFF7DCFA5B
:101960001F48001D00684CF23A3188431C49091D8C
:101970000860062019490870C1E71020FFF7F6FA41
:1019800078B11020FFF7C8FA1548001D00684CF226
:101990003A3188431249091D086005200F49087033
:1019A000ADE74FF40070FFF7E1FA80B14FF400703B
:1019B000FFF7B2FA0A48001D00684CF23A3188433A
:1019C0000749091D086007200449087097E70020AF
:1019D00095E700002D000020E82200202E000020C6
:1019E000382C01402F0000202DE9F84F8146174682
:1019F00098460A9C4FF0000AD3464D464FF0FF36FA
:101A0000B9F1000F02D12620BDE8F88F00208649E9
:101A1000086086480078022805D10402780A40EA66
:101A2000C8574FEA68280020814988604860401EF6
:101A30000860012048610020C86008610846FFF77F
:101A40007BFA79481838006800F0007008B10E2061
:101A5000DAE7002C21DDB4F5006F1EDC601E2040AB
:101A6000D8B9204601F066FA009072480460102050
:101A700070494860402088600020C8604FF4806052
:101A800008610846FFF7BEFA1020FEF771FC824697
:101A9000BAF1000F03D05046B6E72620B4E700980D
:101AA000000163498860084644604FF0FF300860D9
:101AB000012048610220C860002008610846FFF745
:101AC0003BFA5C48076011205A4948604020886012
:101AD0000020C8604FF4806008610846FFF792FA62
:101AE0001120FEF745FC8246BAF1000F01D05046A6
:101AF0008AE75148007800285CD1FEF752FB18E0D5
:101B00004FF40040FFF732FA78B14FF0000B06E0D7
:101B100045485430006845F82B000BF1010BBBF130
:101B2000080FF5D32035454E03E00EB904206BE7CE
:101B3000761E3D480830006840F22A6108400028BF
:101B4000DED00820FFF712FA20B10820FFF7E4F9F1
:101B5000042059E70220FFF709FA20B10220FFF71D
:101B6000DBF9022050E72020FFF700FA20B1202007
:101B7000FFF7D2F9062047E74FF40070FFF7F6F9B8
:101B800028B14FF40070FFF7C7F907203CE704E0E5
:101B900025485430006828602D1D4FF40010FFF7D1
:101BA000E5F90028F4D1FEF7FEFA40F2FF50FFF706
:101BB000B3F936E020480078012832D100202049CE
:101BC00008702049087020490870174810300068D4
:101BD00040F22A3108431449103108601248006865
:101BE00040F0080010490860002221464846FFF7EF
:101BF00025FA00E0761E1548006800F0006038B94C
:101C00001148007820B90E48007808B9002EF1D1AB
:101C10000EB90420F8E60A48007810B1084890F898
:101C200000A05046F0E600002C2C014024000020CB
:101C3000FC220020E82200202C000020FFFF7F0073
:101C40002E0000202D0000202F0000200064024004
:101C50002DE9FE4F83460E46914600200290002556
:101C600034462148007818B1680240EAD45564022D
:101C70000BF00300F0B14FF0000A18E04FF40070D1
:101C800000904FEA4A20071945EBE0733A4617489F
:101C9000FFF7AAFE02904FF4007214495846FEF76F
:101CA000CCFA0BF5007B0AF1010000F0FF0ACA45EF
:101CB000E4DB16E0B9F1010F09D14FF400702246C0
:101CC0002B4600905846FFF78FFE029009E04FF434
:101CD000007022462B46CDE90009584600F008F86E
:101CE00002900298BDE8FE8F24000020902300207F
:101CF0002DE9FF5F17469846DDE90E464FF00009D3
:101D0000CA464FF0FF35AC49009808600020AB4947
:101D10000860AB480078022805D10402780A40EA3E
:101D2000C8574FEA68280020A64988604860401ECE
:101D30000860012048610020C86008610846FFF77C
:101D4000FBF89E481838006800F0007018B10E20AB
:101D500004B0BDE8F09F002C21DDB4F5006F1EDC5F
:101D6000601E2040D8B9204601F0E4F8834696482A
:101D70000460102094494860402088600020C860BA
:101D80004FF4806008610846FFF73CF91020FEF729
:101D9000EFFA8146B9F1000F03D04846D8E7262074
:101DA000D6E7012E71D906FB04F0B0F1007F01D314
:101DB0002620CDE74FEA0B108249886006FB04F02D
:101DC00048604FF0FF300860012048610220C86081
:101DD000002008610846FFF7AFF87B480760122033
:101DE00079494860402088600020C8604FF48060D6
:101DF00008610846FFF706F91220FEF7B9FA814696
:101E0000B9F1000F01D04846A2E7704800780028D9
:101E10007ED1FEF7C6F91EE04FF40040FFF7A6F8AA
:101E2000A8B14FF0000A08E06448543000686249E5
:101E3000096841F82A000AF1010ABAF1080FF3D340
:101E40005D48006820305C490860614D03E00DB9D1
:101E500004207DE76D1E59480830006840F22A31A1
:101E600008400028D8D00820FFF780F820B10820CB
:101E7000FFF752F804206BE70220FFF777F828B14C
:101E80000220FFF749F8022062E792E02020FFF7E6
:101E90006DF820B12020FFF73FF8062058E74FF4F7
:101EA0000070FFF763F828B14FF40070FFF734F8C3
:101EB00007204DE70AE04148543000683E49096870
:101EC00008603D480068001D3B4908604FF4001061
:101ED000FFF74CF80028EED14FF48070FFF746F87A
:101EE00020B33748007838B135480078012803D04E
:101EF00033480078022819D10020334908600C20AB
:101F00004860402088600020C8604FF4806000E096
:101F100013E008610846FFF775F80C20FEF728FA71
:101F20008146B9F1000F01D0484611E7FEF73BF9B1
:101F300040F2FF50FEF7F0FF3BE024480078012814
:101F400037D1002023490870012023490870002060
:101F50002249087019481030006840F22A310843BD
:101F60001649103108601548006840F00800134910
:101F7000086006FB04F100220098FFF75FF800E01C
:101F80006D1E1748006800F0006008B9002DF7D1F9
:101F90000DB90420DCE600BF1048007818B90D48E0
:101FA00000780028F8D00B48007810B1094890F864
:101FB00000904846CCE60000300000202C2C014068
:101FC00024000020FC220020E82200202C00002019
:101FD000FFFF7F002E0000202D0000202F0000209A
:101FE0000064024010B5044609480460072008490F
:101FF0004860402088600020C8604FF4806008611D
:102000000846FEF7FFFF0720FEF7B2F910BD0000FB
:10201000E822002001460020012900D011B9024B1E
:10202000197000E0262070472C0000202DE9FF5F8A
:1020300086B017469846149D00260020059004900F
:10204000002481460390824602900195DDF818B085
:10205000DDF818B0BBF1000F03D126200AB0BDE8AF
:10206000F09F0020C9490860C94988604860401E47
:102070000860012048610020C86008610846FEF73A
:102080005BFFC2481838006800F0007008B10E20ED
:10209000E4E7C0480078022805D10502780A40EA42
:1020A000C8574FEA6828002D1FDDB5F5006F1CDC0E
:1020B000681E2840C8B9284600F03CFF0590B64885
:1020C00005601020B4494860402088600020C86046
:1020D0004FF4806008610846FEF794FF1020FEF779
:1020E00047F906461EB13046B8E72620B6E7AB48AA
:1020F00000880004A84908600D20486040208860DE
:102100000020C8604FF4806008610846FEF77AFF3F
:102110000D20FEF72DF906460EB130469EE79B488E
:102120001838006803904FF0FF341CE0641E9B4891
:1021300000880004984908600D20486040208860AD
:102140000020C8604FF4806008610846FEF75AFF1F
:102150000D20FEF70DF906460EB130467EE78B489E
:10216000183800680390039800F4807008B9002CB8
:10217000DCD10CB9292071E787480760182086490F
:102180004860402088600020C8604FF4806008618B
:102190000846FEF737FF1820FEF7EAF806460EB1AC
:1021A00030465BE700207E490870059800017849B9
:1021B0008860084645604FF0FF30086001204861A4
:1021C0000020C86008610846FEF7B6FE4FF0FF34F5
:1021D0007448007800287ED1FDF7E3FF45E04FF416
:1021E0008040FEF7C3FED8B30198A0EB0900202879
:1021F00022D20198A0EB090000F0030020B9019859
:10220000A0EB0900800804E00198A0EB0900800819
:10221000401C02904FF0000A0AE05C495431DBF8A0
:10222000000008600AF1010A0BF1040B09F104092E
:1022300002988245F1D310E04FF0000A06E05BF807
:102240002A005249543108600AF1010ABAF1080F14
:10225000F5D30BF1200B09F120096FF0404404E0A5
:10226000FFE70CB90420F9E6641E4848083000680E
:1022700040F21A6108400028B1D00820FEF776FE2F
:1022800020B10820FEF748FE0420E7E60220FEF712
:102290006DFE20B10220FEF73FFE0220DEE6102098
:1022A000FEF764FE20B11020FEF736FE0520D5E6CD
:1022B0004FF40070FEF75AFE30B14FF40070FEF795
:1022C0002BFE0720CAE606E0FDF76DFF40F2FF5047
:1022D000FEF722FE41E03348007801283DD100207E
:1022E000314908702E49087030490870274810306D
:1022F000006840F21A310843244910310860402236
:1023000029460698FEF79AFE2048006840F008002B
:102310001E49086000E0641E2548006800F0006067
:1023200008B9002CF7D11CB9FFF784F8042095E612
:102330004FF0FF3400E0641E1C48007820B91A48B2
:10234000007808B9002CF6D10CB9042086E61648AE
:10235000007810B11448007880E640F2FF50FEF794
:10236000DBFD04A8FEF704FC064603E004A8FEF724
:10237000FFFB06463EB99DF810000728F6D09DF8F1
:1023800010000628F2D0304668E600002C2C0140F0
:10239000FC22002024000020E82200202800002049
:1023A0002D0000202C0000202E0000202F000020F7
:1023B000006402402DE9FE4F064689469246002001
:1023C000029000254C462148007818B1680240EA86
:1023D000D455640206F00300F0B14FF0000B18E092
:1023E0004FF4007231461A48FDF727FF4FF4007092
:1023F00000904FEA4B20071945EBE0733A4614482A
:10240000FFF714FE029006F500760BF1010000F0D4
:10241000FF0BD345E4DB16E0BAF1010F09D14FF40D
:10242000007022462B4600903046FFF7FFFD0290D9
:1024300009E04FF4007022462B46CDE9000A3046F1
:1024400000F008F802900298BDE8FE8F24000020FA
:10245000902300202DE9FF5F84B0DDE912470026BC
:10246000002003900290002580468146019007FBE2
:1024700004FBDDF810A0DDF810A0BAF1000F03D1C5
:10248000262008B0BDE8F09F0020DC490860DC4948
:1024900088604860401E0860012048610020C860D4
:1024A00008610846FEF748FDD4481838006800F077
:1024B000007008B10E20E4E7D2480078022808D165
:1024C0000402DDE90601400A40EAC1504912CDE9A3
:1024D0000601002C1FDDB4F5006F1CDC601E2040DF
:1024E000C8B9204600F026FD0390C74804601020BC
:1024F000C5494860402088600020C8604FF4806073
:1025000008610846FEF77EFD1020FDF731FF064604
:102510001EB13046B5E72620B3E7012F6FD907FB80
:1025200004F0B0F1007F01D32620AAE7B548007877
:1025300038B1B4480078012803D0B24800780228A6
:102540002DD1B24800880004AF49086037204860A8
:10255000402088600020C8604FF480600861084611
:10256000FEF750FD3720FDF703FF06460EB130465B
:1025700087E7A54807601720A34948604020886086
:102580000020C8604FF4806008610846FEF73AFDFD
:102590001720FDF7EDFE06460EB1304671E79A4969
:1025A0000698086019204860402088600020C860B4
:1025B0004FF4806008610846FEF724FD1920FDF7FE
:1025C000D7FE06460EB130465BE7039800018C4902
:1025D000886007FB04F048604FF0FF30086001207E
:1025E00048610020C86008610846FEF7A5FC8848DD
:1025F0000078002874D1451EFDF7D3FD42E0E4E0E9
:102600004FF48040FEF7B2FCB8B3ABEB08002028D3
:102610001FD2ABEB080000F0030018B9ABEB0800C9
:10262000800803E0ABEB08008008401C01904FF0ED
:1026300000090AE071495431DAF80000086009F134
:1026400001090AF1040A08F1040801988145F1D34F
:1026500010E04FF0000906E05AF8290067495431AC
:10266000086009F10109B9F1080FF5D30AF1200A50
:1026700008F120086FF0404504E0FFE70DB90420A1
:10268000FFE66D1E5D480830006840F21A310840D0
:102690000028B5D00820FEF769FC20B10820FEF71D
:1026A0003BFC0420EDE60220FEF760FC20B1022096
:1026B000FEF732FC0220E4E61020FEF757FC20B1C2
:1026C0001020FEF729FC0520DBE64FF40070FEF732
:1026D0004DFC30B14FF40070FEF71EFC0720D0E631
:1026E0002CE04FF48070FEF741FC00B345480078C1
:1026F00038B144480078012803D0424800780228C5
:1027000015D10020404908600C20486040208860B6
:102710000020C8604FF4806008610846FEF772FC34
:102720000C20FDF725FE06460EB13046A9E6FDF762
:102730003AFD40F2FF50FEF7EFFB46E034480078E8
:10274000012842D100203349087001203249087025
:1027500000203249087029481030006840F21A31D0
:10276000084326491031086007FB04F14022049811
:10277000FEF764FC2148006840F008001F4908602B
:102780004FF0FF3500E06D1E2548006800F0006046
:1027900008B9002DF7D11DB9FEF74CFE042070E6F4
:1027A0004FF0FF3500E06D1E1C48007820B9194835
:1027B000007808B9002DF6D10DB9042061E615485E
:1027C000007810B1134800785BE640F2FF50FEF746
:1027D000A3FB02A8FEF7CCF9064603E002A8FEF729
:1027E000C7F906463EB99DF808000728F6D09DF8BF
:1027F00008000628F2D0304643E600002C2C0140A9
:10280000FC22002024000020E822002028000020D4
:102810002C0000202E0000202D0000202F00002082
:10282000006402400CB5002001900090344800681C
:1028300040F480303249086000BF3148006800F43D
:10284000003000900198401C0190009818B9019840
:10285000B0F5A04FF1D12A48006800F4003010B163
:102860000120009001E0002000900098012846D14E
:1028700023484030006840F08050214940310860D2
:102880002048006840F440401E4908601C48083059
:1028900000681B49083108600846006840F40040A1
:1028A00008600846006840F4A05008601648091FF8
:1028B0000860081F006840F08070091F086000BFB2
:1028C0000F48006800F000700028F9D040F2057051
:1028D0000E4908600A480830006820F003000849E3
:1028E000083108600846006840F00200086000BF38
:1028F00003480830006800F00C000828F8D10CBD2F
:10290000003802400070004008544007003C02407C
:10291000042808D14FF0E021096941F004014FF08B
:10292000E022116107E04FF0E021096921F0040184
:102930004FF0E0221161704710B545F20824601E87
:10294000B0F1807F01D301200FE0601E4FF0E02145
:1029500048610F214FF0FF30FEF7BAF900204FF029
:10296000E021886107200861002008B100BFFEE770
:102970006FF00400FFF7CCFF10BD00000248008894
:10298000401C0149088070470C00002010B5154814
:10299000006840F47000134908601348006840F074
:1029A00001001149086000200F49083108600E48F5
:1029B00000680E4908400C4908600D48091D086070
:1029C000081F006820F48020091F086000200649C5
:1029D0000C310860FFF726FF4FF000600149803995
:1029E000086010BD88ED00E000380240FFFFF6FEF1
:1029F00010300024012080F3138800BF00BF00BF07
:102A000000BF00BF00BFBFF34F8F00BF00BF00BFBC
:102A10000948006800F4E06008490843001D0649C1
:102A2000086000BF00BF00BFBFF34F8F00BF00BFF3
:102A300000BF00E000BFFDE70CED00E00000FA057C
:102A400000B587B001210846FEF756F90121102094
:102A5000FEF762F9072209211948FEF765F80722F7
:102A60000A211748FEF760F84FF4C0600590022075
:102A70008DF818008DF8190000208DF81A0001203B
:102A80008DF81B0005A90E48FEF706F84FF4E1305B
:102A900001900020ADF80800ADF80A00ADF80C0078
:102AA000ADF810000C20ADF80E0001A9054800F0AB
:102AB00025F80121034800F007F807B000BD000029
:102AC000000002400010014021B1828942F400520E
:102AD000828104E082894DF6FF731A40828170473B
:102AE00002460020B1F5007F00D100BF13880B40E3
:102AF0000BB1012000E00020704700002DE9FF47E6
:102B000005460E460024A14600BFA046B08900B18C
:102B100000BF2C8A24F44054F08804432C82AC89F2
:102B200041F20C608443B0883189084371890843BD
:102B30000443AC81AC8A24F44074B0890443AC8271
:102B40006846FEF717F92048854202D01F488542A3
:102B500002D1DDF80C9001E0DDF80890A88900F4BE
:102B6000004040B109EBC90000EB09103168490091
:102B7000B0FBF1F707E009EBC90000EB0910316881
:102B80008900B0FBF1F76420B7FBF0F004012009E5
:102B9000642101FB1078A88900F4004040B1322084
:102BA00000EBC800B0FBF1F000F00700044308E0C0
:102BB000322000EB08106421B0FBF1F000F00F00B0
:102BC00004432C81BDE8FF87001001400014014040
:102BD000C1F30802828070470FB4054B10B503A9FA
:102BE000044A029800F018F810BC5DF814FB0000CD
:102BF0004D4200088400002002E008C8121F08C1EE
:102C0000002AFAD170477047002001E001C1121F6D
:102C1000002AFBD1704700002DE9FF4F8BB09A4688
:102C20000F460446002606E025280BD052460D9993
:102C30009047641C761C20780028F5D10FB03046F0
:102C4000BDE8F08F0025A94601227D4900E005433B
:102C500014F8013F203B02FA03F00842F7D1207834
:102C60002E2817D114F8010F45F004052A280ED09C
:102C70006FF02F022078A0F1300109290AD809EB62
:102C8000890102EB410100EB0109641CF2E757F8EE
:102C9000049B641C20786C280DD004DC4C2812D0D6
:102CA0006A2811D104E074280DD07A280CD10AE0EA
:102CB00045F4001507E0617845F48015814202D1A2
:102CC000641C05F58015641C207869283ED006DC5C
:102CD0000028B3D063280BD0642804D136E07328D1
:102CE00010D075285CD052460D999047761CA5E00F
:102CF00017F8040B8DF8000000208DF80100E8465D
:102D0000012003E057F8048B4FF0FF3069074FF0C4
:102D1000000501D40AE06D1C4D450DDA8542FADB51
:102D200018F805100029F6D106E06D1C8542FCDB81
:102D300018F805100029F8D12E4404E018F8010B0A
:102D400052460D9990476D1EF8D277E000200A9008
:102D5000C5F302504FF00A0B02280CD001CFC11767
:102D6000021E71F100020CDA0023D0EB030063EBCA
:102D700001012D2208E0FF1D27F00707F7E80201F7
:102D8000EEE72A0504D52B228DF82420012203E04A
:102D9000EA070FD02022F7E70DF12008089218E08B
:102DA00000200A90C5F302504FF00A0B022803D00E
:102DB00001CF00210022EFE7FF1D27F00707F7E80A
:102DC0000201F7E75A460A9BFDF756FA303208F837
:102DD000012D50EA0102F5D1ADEB080000F1200B06
:102DE000680701D44FF00109D94502DDA9EB0B00BA
:102DF00000E000208146002506E009A85246405D1B
:102E00000D9990476D1C761C08988542F5DB04E00F
:102E1000302052460D999047761CB9F10001A9F176
:102E20000109F5DC05E018F8010B52460D999047B1
:102E3000761CBBF10001ABF1010BF4DC641CFAE67B
:102E40000928010070B504460D4600202071401E7F
:102E5000E0622946204601F05BFD08B1032070BD09
:102E600094F82E1294F82F0241EA00204AF65521D8
:102E7000884201D00220F2E794F86900010694F834
:102E8000680041EA004194F8670041EA002094F8A4
:102E90006610084320F07F400D49884201D1002090
:102EA000DDE794F88500010694F8840041EA0041CA
:102EB00094F8830041EA002094F88210084320F03F
:102EC0007F400349884201D10020C8E70120C6E7BE
:102ED00046415400024600E0521C107810B11078B0
:102EE0008842F9D11078704770B503460D46586A8C
:102EF000021D680A1E68B678B0FBF6F400BF02CA6D
:102F000009B9002070BD8C4200D202E0641A121D83
:102F1000F5E700BF10682044F4E70246891E5069B7
:102F2000801E884201D8002070479378906A01FB88
:102F30000300F9E70146002002E04910421CD0B22C
:102F40000129FAD170472DE9F04704468946B9F1C5
:102F5000000F06D1E76817B16069B84215D801279C
:102F600013E04946204601F083F90646022E02D2BC
:102F70000120BDE8F087701C08B93046F9E76069A8
:102F8000B04201D93046F4E74F463D4600BF6D1CC4
:102F90006069A84204D80225BD4201D90020E8E7B3
:102FA0002946204601F064F9064606B909E0701C7E
:102FB00008B1012E01D13046DBE7BD42E7D1002048
:102FC000D7E700BF6FF070422946204601F06EFD42
:102FD0008046B8F1000F08D1B9F1000F05D02A469C
:102FE0004946204601F062FD8046B8F1000F0BD142
:102FF000E5602069401C78B12069401E206160793D
:1030000040F00100607107E0B8F1010F02D14FF00C
:10301000FF3000E0012005462846AAE72DE9F35FCE
:103020000198D0F8009001E009F1010999F8000039
:103030002F28F9D099F800005C28F5D0009886690F
:103040000B222021304601F059FC00252F46AB46CB
:103050004FF0080A00BF58460BF1010B19F8004069
:10306000202C03DD2F2C01D05C2C00D153E02E2C22
:1030700001D057450DD3BAF1080F01D12E2C02D043
:103080000620BDE8FC9F08274FF00B0AA806050E96
:10309000E1E7802C01DB45F00305812C20DBFE2CD1
:1030A0001EDC58460BF1010B19F80080B8F1400FF7
:1030B00002DBB8F17E0F05DDB8F1800F06DBB8F159
:1030C000FE0F03DCAAF10100B84201D80620D8E7C0
:1030D00038467F1C345438467F1C06F8008019E0BF
:1030E000214620A0FFF7F6FE08B10620C9E7412CD3
:1030F00004DB5A2C02DC45F0020508E0612C06DBFB
:103100007A2C04DC45F00105A4F12000C4B2384655
:103110007F1C34549FE700BF09EB0B01019801604D
:10312000202C01DC042000E0002004460FB906201A
:10313000A7E73078E52801D105203070BAF1080FF3
:1031400001D1A806050E05F00300012801D144F0C5
:10315000100405F00C00042801D144F00804F472B6
:1031600000208EE7222A2B2C3A3B3C3D3E3F5B5D04
:103170007C7F00002DE9F04104460E4600212046E8
:1031800000F04BF90546EDB9002700BF2169206822
:1031900001F0BEFB054605B113E060690078E52843
:1031A00002D06069007820B9781C0746B04201D18E
:1031B00007E000270121204600F038F80546002DE1
:1031C000E4D000BF042D00D107252846BDE8F081DA
:1031D0002DE9F04104460021204600F01EF9054685
:1031E00015B12846BDE8F08100BF2169206801F0D3
:1031F0008FFB054605B116E0666937780FB90425DF
:1032000011E0F07A00F0080030B90B223046A169D5
:1032100001F054FB00B906E00021204600F006F85A
:103220000546002DE1D000BF2846DBE72DE9F0413F
:1032300004468846E088461CB0B208B1206910B93F
:103240000420BDE8F08106F00F0000286CD1206951
:10325000401C2061E06828B920680089B04263D82A
:103260000420EEE720688078401E00EA161000284F
:103270005AD1E168206800F0FBFF0546012D01D816
:103280000220DEE7681C08B90120DAE720684069FF
:10329000A84243D8B8F1000F01D10420D1E7E1687A
:1032A0002068FFF750FE05460DB90720C9E7012D3C
:1032B00001D10220C5E7681C08B90120C1E72068D8
:1032C00001F031FD08B10120BBE7216801F13000B8
:1032D0004FF40072002101F011FB29462068FFF72E
:1032E0001CFE2168C86200270EE0012021680871D9
:1032F000206801F018FD08B10120A2E72068C06A2B
:10330000401C2168C8627F1C20688078B842ECD8D5
:103310002068C06AC01B2168C86200BFE5602946FA
:103320002068FFF7FAFD2061E6802068303006F063
:103330000F0100EB41106061002082E72DE9F047AA
:1033400004468946042526E02169206801F0E0FA58
:10335000054605B122E0D4F8148098F800600EB953
:1033600004251BE098F80B0000F03F07E52E0BD07A
:103370002E2E09D00F2F07D0082F01D1012000E0F9
:103380000020484500D109E000212046FFF74EFF0C
:10339000054605B102E020690028D5D100BF0DB176
:1033A000002020612846BDE8F08770B50446012161
:1033B0002046FFF7DFFE054695B92169206801F038
:1033C000A7FA054665B920220021606901F096FA46
:1033D0000B22D4E9050101F084FA0120216808716B
:1033E000284670BD70B50446E188204600F015F807
:1033F000054685B92169206801F08AFA054655B964
:1034000020220021606901F079FAE52061690870E5
:10341000012021680871284670BD2DE9F04104465D
:103420000E46E680A568012D03D020684069A842B9
:1034300002D80220BDE8F0812DB920680078032869
:1034400001D12068456A45B920680089B04201D899
:103450000220EFE72068476A1EE0206880784FEA84
:10346000001812E02946206800F002FF0546681C9B
:1034700008B90120DEE7022D03D320684069A84285
:1034800001D80220D6E7A6EB08064645EAD229462F
:103490002068FFF742FD0746E5600FB90220C9E743
:1034A00007EB161020612068303006F00F0100EBAA
:1034B000411060610020BDE770B50446002514B1DD
:1034C000012C05D103E0FDF7B5FF054602E001E060
:1034D000012500BF00BF0DB1012070BD0020FCE739
:1034E0002DE9F04706468946154646BBB9F1000F5F
:1034F00009D0B9F1010F13D0B9F1020F05D0B9F11C
:10350000030F19D106E0002418E04FF40070286082
:10351000002413E01D48B0F85000288000240DE07E
:103520001A484FF400720023D0E912713846FCF7B4
:1035300053FE2860002401E0042400BF22E0012E95
:103540001FD1B9F1000F09D0B9F1010F11D0B9F1B4
:10355000020F05D0B9F1030F10D106E000240FE0EF
:103560004FF40070288000240AE0082028800024FE
:1035700006E0074800882860002401E0042400BF1A
:1035800000E001242046BDE8F08700003823002039
:10359000380000202DE9F04105460E4617461C462E
:1035A0004FF0000814B90420BDE8F08115B1012DD9
:1035B00014D112E0E2B239463046FEF749FB8046AC
:1035C00007E0FDF737FFE2B239463046FEF740FB31
:1035D0008046B8F1000FF4D103E002E04FF001089B
:1035E00000BF00BFB8F1000F01D10020DCE70120CF
:1035F000DAE70146002070472DE9F04105460E4606
:1036000017461C464FF0000814B90420BDE8F081AD
:1036100015B1012D14D112E0E2B239463046FEF761
:10362000C9FE804607E0FDF705FFE2B239463046A5
:10363000FEF7C0FE8046B8F1000FF4D103E002E0CF
:103640004FF0010800BF00BFB8F1000F01D100200A
:10365000DCE70120DAE72DE9FC4707460C46154672
:10366000002000908046814601AA6946384600F055
:103670006BF806468EB901984069801E01998978D9
:1036800000FB01F901988078009900FB01F84FEAEE
:10369000590020604FEA580028603046BDE8FC879A
:1036A00010B500240EE04FF40C71002001F0E0F999
:1036B000184941F82400084650F8240000B903E0F6
:1036C000601CC4B2032CEEDB00BF4FF40A71002073
:1036D00001F0CEF9104908604FF40A71002001F0A2
:1036E000C7F90E4908604FF40071002001F0C0F9DD
:1036F0000B490860032C0AD10748006838B1074815
:10370000006820B10846006808B1002010BD012003
:10371000FCE700009C2500203C0000204000002029
:103720004C00002070B50546284600F0D5FA044646
:1037300044B9284601F01DFB04460CB9002028605E
:10374000204670BD2046FCE72DE9F74F82B08A463F
:10375000002202A9049800F06DFB0190049804680F
:10376000019800286DD1D4E90410801E814203D84D
:103770002069CAF8000064E094F800B00026BBF1AC
:10378000010F1CD1022700BF3946204600F070FD12
:10379000804608F1010010B9012001900EE0B8F157
:1037A000010F02D10220019008E0B8F1000F00D112
:1037B000761C781C074661698842E5D33AE0676960
:1037C000206A00904FF00009002500BFB9F1000FFA
:1037D0000ED10098421C01462046009201F098F854
:1037E0000190019800B124E004F130054FF4007914
:1037F000BBF1020F09D12878697840EA012000B9AD
:10380000761CAD1CA9F1020910E0E8780006A97841
:1038100040EA0140697840EA01202978084320F015
:10382000704000B9761C2D1DA9F10409781E071EF1
:10383000CCD100BF2661607940F001006071CAF808
:103840000060019805B0BDE8F08F0000F7B582B0C8
:1038500016460398019001A800F080FD0546002D52
:1038600002DA0B2005B0F0BD0E4850F825400CB12F
:1038700000202070029810B10020029908700949B8
:10388000029841F82500029808B1012E01D00020CD
:10389000E8E7002203A902A800F0CCFA0746384660
:1038A000E0E70000902500202DE9F7438AB00546A7
:1038B00016461DB909200DB0BDE8F0830020286030
:1038C00006F01F0626F001020BA903A800F0B2FAC9
:1038D0000746002F7ED1CDF824D003A80B9900F025
:1038E0006DFC0746089C0FB904B9062706F01C00BA
:1038F000002851D04FB1042F03D103A8FFF755FD85
:10390000074646F00806089C09E0E07A00F011003E
:1039100008B1072703E006F0040000B10827002FD4
:1039200039D106F00800002835D000F015FD80469A
:1039300084F80E804FEA1821E1734FEA1841217490
:103940004FEA186161740020E072207700216177EE
:10395000A177E1772146039800F03CFD81460021E4
:10396000204601F074F9012003990871B9F1000FA4
:1039700011D00398D0F82C804946039801F031F912
:10398000074647B9A9F101000399C8604146039869
:1039900000F0BEFF07460EE06FB9E07A00F01000BD
:1039A00008B1042707E006F0020020B1E07A00F039
:1039B000010000B1072747B906F0080008B146F03A
:1039C00020060398C06AE8612C621FB9AE7100201E
:1039D000E87100E018E02146039800F0FBFC286144
:1039E000E07F0106A07F41EA0041607F41EA0020BC
:1039F000217F0843E8600020A860A86168620398FE
:103A000028602868C088A880384654E72DE9FF4F11
:103A100083B0044615469A46DDF810B00020CAF877
:103A20000000204601F0A5F90290029818B1029812
:103A300007B0BDE8F08FE07908B1E079F8E7A07948
:103A400000F0010008B90720F2E7D4E90210401A9B
:103A500000900098854200D9009DAAE02089C0F31B
:103A60000800002876D120688078401EA16800EA0E
:103A7000512000F0FF09B9F1000F1FD1A06810B963
:103A8000206901900CE0606A28B12046A168FFF728
:103A90002BFA019004E06169206800F0E9FB0190D5
:103AA0000198022802D20220E071C1E70198401C6F
:103AB00010B90120E071BBE701986061616920687D
:103AC000FFF72BFA064616B90220E071B0E74E4424
:103AD0004FEA5528B8F1000F29D009EB08002168FA
:103AE0008978884203D920688078A0EB090821688A
:103AF0004878434632465946FFF74CFD10B1012045
:103B0000E07195E7A07900F0400068B1A069801BE2
:103B1000404509D2A169891B0BEB41204FF400728B
:103B200004F1280100F0DDFE4FEA482737E0A069E4
:103B3000B04220D0A07900F0400080B121684878E0
:103B4000012304F12801A269FFF756FD18B10120F5
:103B5000E0716DE710E0A07920F04000A0712168CD
:103B600048780123324604F12801FFF713FD10B114
:103B70000120E0715CE7A6612089C0F30800C0F570
:103B80000077AF4200D92F462089C0F3080204F124
:103B9000280011183A46584600F0A3FE00BFBB4467
:103BA000A0683844A060DAF800003844CAF8000081
:103BB000ED1B002D7FF452AF002039E7F3B597B02D
:103BC000012217A910A800F035F90446002C0ED1E7
:103BD00010980990CDF858D010A8179900F0EEFA77
:103BE000044600BF002C74D1159808B9042470E075
:103BF000159800F10B01152203A800F072FE1C229B
:103C000010A909A800F06DFE18A800F0A7FB002875
:103C100005DB09A8189900F0D1FA044600E00B244E
:103C200004B90824042C54D109A8FFF7BEFB0446AC
:103C3000002C4ED10E9D13220DF10E0105F10D0049
:103C400000F04FFE9DF80C0040F02000E8720120CB
:103C5000109908710B991298884230D0E87A00F0D8
:103C6000100060B32946109800F0B4FB07463946AF
:103C70001098FFF752F906460EB902241FE03146AC
:103C8000109800F045FE0446109800F15005B4B9B4
:103C900068782E2813D110980078032806D110993F
:103CA0000B98496A884201D1002000E00B98064633
:103CB0003146284600F0CBFF01201099087144B925
:103CC00010A8FFF78FFB04461CB9109800F0C7FF3F
:103CD0000446204619B0F0BD2DE9F04104462046C7
:103CE00001F047F80746002F4CD1A07900F02000E2
:103CF000002847D0A07900F0400078B121684878CA
:103D0000012304F12801A269FFF776FC10B101201C
:103D1000BDE8F081A07920F04000A071E169206841
:103D200000F0F6FD0746002F2CD1256AE87A40F016
:103D30002000E872207B2877A089010A6977E06873
:103D4000010CA977E068010EE9772846216900F0A7
:103D50007EFF00F001FB0646AE75310AE975310CB5
:103D60002976310E69760020A8740021E974A079C3
:103D700020F02000A071012021680871206800F067
:103D80006EFF07463846C3E771B591B0012211A90D
:103D90000AA800F04FF80446002C47D1CDF840D0D7
:103DA0000AA8119900F00AFA044600BF002C3DD180
:103DB0000F9E0EB9062404E0F07A00F0010000B175
:103DC000072431460A9800F005FB0546ECB9F07A65
:103DD00000F01000C8B1022D01D2022415E01C220F
:103DE0000AA903A800F07DFD0595022103A8FFF7AD
:103DF00014FB04464CB9002103A8FFF79FFA0446C0
:103E000004B90724042C00D100247CB90AA8FFF7C8
:103E1000E9FA044654B925B129460A9800F0E1FEB2
:103E200004461CB90A9800F01AFF0446204612B056
:103E300070BD00002DE9F74F88B00021089801609F
:103E4000099800F08BFA07900798002803DA0B20F6
:103E50000BB0BDE8F08FD549079851F820400CB958
:103E60000C20F5E708980460207878B16078FFF7B7
:103E7000C0FB804608F0010040B90A9820B108F064
:103E8000040008B10A20E3E70020E1E700202070E9
:103E9000079860706078FFF70FFB804608F001001C
:103EA00008B10320D4E70A9820B108F0040008B153
:103EB0000A20CDE7002739462046FEF7C3FF054616
:103EC000012D01D06DBB2CE0002614E004F5F77144
:103ED00001EB0610017951B1C17A0A06817A42EAF2
:103EE0000142417A42EA0121027A114300E00021B5
:103EF0004DF82610761C042EE8D3002606B1761E57
:103F000000BF5DF8267027B139462046FEF79AFFBC
:103F100000E0022005461DB1701C06460428F0D3BF
:103F200000BF032D01D1012092E70DB10D208FE7D5
:103F30003B20015D94F83C0041EA0020B0F5007F91
:103F400001D00D2084E74620015D94F8470041EA46
:103F50000029B9F1000F0ED194F85700010694F82A
:103F6000560041EA004194F8550041EA002094F8D7
:103F7000541040EA0109C4F818904020005DE07038
:103F8000E078012804D0E078022801D00D205FE716
:103F9000E07809FB00F93D20005DA070A07818B121
:103FA000A078411E084008B10D2051E74120015D75
:103FB00094F8420041EA00202081207A00F00F00AE
:103FC00008B10D2044E74320015D94F8440041EA24
:103FD000002BBBF1000F0ED194F85300010694F8AA
:103FE000520041EA004194F8510041EA002094F85F
:103FF000501040EA010B3E20015D94F83F0041EA79
:1040000000200490049808B90D2021E70498484442
:10401000218900EB111006900698834501D20D20EE
:1040200016E70698ABEB0000A178B0FBF1FABAF105
:10403000000F01D10D200BE7012540F6F6708245F7
:1040400000D302254FF6F670824500D303250AF10E
:1040500002006061E76104983844206206983844A1
:10406000A062032D16D1208908B10D20F0E694F846
:104070005F00010694F85E0041EA004194F85D009B
:1040800041EA002094F85C10084360626069800097
:10409000059014E0208908B90D20D9E6206A48442B
:1040A0006062022D02D16069400007E0207D00F0CF
:1040B0000100616901EB410100EB51000590A1692C
:1040C000059800F2FF10B1EB502F01D20D20BFE692
:1040D0004FF0FF302061E06080206071032D5AD1E5
:1040E00094F8601094F8610041EA0020012852D150
:1040F000791C204600F00CFCE8BB0020607194F8AD
:104100002E1294F82F0241EA00204AF655218842E7
:1041100041D13320005D01063220005D41EA0041BB
:104120003120005D41EA002094F830100843204916
:10413000884230D194F81702010694F8160241EA39
:10414000004194F8150241EA002094F81412084343
:10415000184988421FD194F81B02010694F81A02EC
:1041600041EA004194F8190241EA002094F818123B
:104170000843206100E00EE094F81F02010694F865
:104180001E0241EA004194F81D0241EA002094F821
:104190001C120843E060257007480088401C80B26C
:1041A00005490880E080002052E6000090250020AC
:1041B00052526141727241613A0000202DE9F3418F
:1041C0000446019800782F2803D0019800785C28D5
:1041D00002D10198401C01900020A0600198007855
:1041E000202807D200212046FFF717F905460020B6
:1041F000606128E000BF01A92046FEF70FFF0546D9
:1042000005B11FE02046FEF7E3FF0546A069C67A28
:104210003DB1042D04D100BF06F0040000B905250E
:1042200010E006F0040000B10CE06769F87A00F0D5
:10423000100008B9052505E03946206800F0CAF8E5
:10424000A060D8E700BF2846BDE8FC8170B50446F1
:104250000D46E1B20548FEF7BBFC00BF4021034814
:10426000FEF73EFC0028F9D0204670BD001001404A
:104270002DE9F04105460C46022C02D36869A042A4
:1042800002D80120BDE8F0812878012804D0022856
:104290002CD003285AD13DE0274607EB5707286A60
:1042A00000EB5721284600F033FB00B150E0C7F384
:1042B000080105F1300010F801807F1C286A00EB2E
:1042C0005721284600F024FB00B141E0C7F3080164
:1042D00005F13000405C48EA002804F0010010B10C
:1042E0004FEA1810CEE7C8F30B00CBE7286A00EBC3
:1042F0001421284600F00CFB00B129E040F2FF1029
:1043000000EA440105F130000E183078717840EA77
:104310000120B7E7286A00EBD411284600F0F8FA2C
:1043200000B115E040F2FF1000EA840105F1300011
:104330000E18F0780006B17840EA0140717840EA42
:1043400001203178084320F070409BE7012099E775
:1043500000BF4FF0FF3095E70020704770B5024670
:104360004FF0FF301568E5B1116800E0491C0D7889
:10437000212D02D30D783A2DF8D10D783A2D0FD199
:10438000146814F8015BA5F130030A2B07D28C42A4
:1043900005D1032B03D218464D1C2946156070BD6C
:1043A000002000BFFBE7000010B504462068074965
:1043B0000840B0F1005F08D16068054908602068D6
:1043C000FBF7F4FE02480068804710BD0000FE2F96
:1043D0003400002010B502468C7ECB7E44EA0320D8
:1043E0001378032B05D10C7D4B7D44EA032340EA6F
:1043F000034010BD0EB5FCF7AFFCFCF709FCFEF75F
:104400009BFA01210846FCF777FC4020019001202F
:104410008DF8080000208DF80A0003208DF80900AF
:1044200001208DF80B0001A9B448FCF735FB0120F1
:10443000B3490860FEF704FB0020B249088000BFC2
:10444000B0480088B0F5FA7FFADBAFA0FEF7C4FBF6
:10445000B3480178B3A0FEF7BFFBB748C06800902F
:10446000B548836842680168B4A0FEF7B5FB002038
:1044700000F068FA022000F065FAFCF7DBFFB749AC
:1044800008700846007860B108460178B4A0FEF7CD
:10449000A3FBB8A0FEF7A0FBBB48FFF785FFFEF724
:1044A000A9FAFFF7FDF8B94901220868B8A1FFF79A
:1044B000CDF9B84908700846007848B10846017837
:1044C000B5A0FEF789FBB048FFF76EFFFEF792FA42
:1044D000B94ABA49AEA0FFF7BEF8B8480068820AE8
:1044E000B5480068810AB6A0FEF776FB0122BAA1A2
:1044F000BD48FFF7D9F9A749087008460078002899
:104500002AD00122B9A1B848FFF7CEF9A149087015
:104510000220B94908609F480078E8B10122B7A19C
:10452000B148FFF7C1F99B4908700120B249086002
:104530009848007880B197480178B2A0FEF74CFB0C
:10454000012293A10020FFF781F9924908708E485B
:10455000FFF72AFFFEF74EFAA348C168AFA0FEF7A7
:104560003BFBFCF7ABF902211020FCF7E3F802213A
:104570001820FCF7DFF802212020FCF7DBF80221ED
:104580002820FCF7D7F802213020FCF7D3F80221CD
:104590003820FCF7CFF802214020FCF7CBF80221AD
:1045A0004820FCF7C7F802215020FCF7C3F802218D
:1045B0005820FCF7BFF89FE09C4B4FF480529C4979
:1045C0008948FFF723FA734908700846007878B1E4
:1045D0008548FFF7A7F86F49087001226CA10020F9
:1045E000FFF734F96B490870FCF712F9FEF702FA8D
:1045F0008E48006800283ED17B48FFF793F8654954
:1046000008707D48006868B98AA0FEF7E5FA8FA0B7
:10461000FFF7BAFB5F4908708CA16FA0FFF7CEFAD5
:104620005C4908707448006802280DD189A0FEF723
:10463000D3FA8EA0FFF7A8FB564908708BA16BA098
:10464000FFF7BCFA53490870012251A10020FFF77F
:10465000FDF850490870FCF7DBF887A0FEF7BCFABC
:104660008BA0FEF7B9FA0120254908604648FFF7FC
:104670009BFE00BFFEE78B48008840B930206C49A4
:10468000087004204870002088702020C870674996
:1046900009888AB2834909883B4B03EB013064499E
:1046A000FCF7C0F8614909888AB27E490988364B0F
:1046B00003EB01307C49FCF7F5F85C487A49026865
:1046C0005B48FBF7CCFD90B14748FFF72BF8314929
:1046D000087001222EA10020FFF7B8F82D490870BC
:1046E00072A0FEF779FAFCF793F8FEF783F96D48AC
:1046F0000088401C6B4908805EE700000000024013
:10470000980240420C000020426F6F746C6F61642D
:1047100065722072756E6E696E672E2E2E0D0A0000
:1047200020000020535953434C4B536F75726365FF
:104730003A25750D0A000000C02200205243435F55
:10474000436C6F636B73467265713A25752C2575E2
:104750002C25752C25750D0A000000000E00002088
:10476000534420496E69742E206661696C3A257540
:104770000D0A00004170702072756E6E696E672EB2
:104780002E2E0D0A00000000008000089C2500204D
:10479000303A0000180000204D6F756E74204C6F89
:1047A000676963616C204472697665206661696C33
:1047B0003A25750D0A0000001400002010000020AA
:1047C0005364436170636974793A256C752F256C65
:1047D00075204D420D0A00006669726D7761726541
:1047E0002E62696E00000000880000204B6C69702A
:1047F0007065722E62696E0000000020666C792E72
:1048000062696E0062696E2066696C65206F706512
:104810006E206661696C3A25750D0A0062696E5FEB
:1048200073697A653A256C750D0A00001C0000203A
:10483000B00200200D0A6669726D776172655F6D66
:104840006F6465203D3D20300D0A0000666C792EB6
:10485000637572000D0A6669726D776172655F6DCE
:104860006F6465203D3D20320D0A0000666C796B57
:104870002E637572000000000D0A4669726D776143
:10488000726520757064617465204F4B0D0A0000DD
:104890000D0A4150502072756E6E696E672E2E2E75
:1048A0000D0A000004000020B81200200D0A636801
:1048B00065636B206572726F720D0A00F0B5034676
:1048C0001C460D46002000BF161EA2F1010207D0B3
:1048D00014F8017B15F801CBA7EB0C06301EF3D0C2
:1048E000F0BD70B503460C4603E014F8015B03F815
:1048F000015B151EA2F10102F7D170BD30B5034670
:1049000001E003F8011B141EA2F10102F9D130BD30
:1049100070B504460D46E06AA84210D0204600F06B
:1049200002FA08B1012070BD607801232A4604F123
:104930003001FEF72FFE08B10120F4E7E562002008
:10494000F1E7000010B504460C4951F824104A0064
:104950000B4951F82400002100F09EF8094951F854
:10496000242007490C3951F82400002100F094F864
:10497000012103480C30015510BD0000A84D00086E
:1049800064000020C04D00082DE9F04704460F46A2
:104990000025A9462348005D20B922482038016837
:1049A000204688471FB94FF0FF30BDE8F0871E480A
:1049B00050F82400B7FBF0F61B4850F82400B7FB72
:1049C000F0F100FB117000B1761C184850F824007B
:1049D000451E22E013480C3850F8240030F815002A
:1049E00010B909F1010901E04FF00009B14513D1F7
:1049F0004FF0000809E00B480C3850F8240005EB94
:104A0000080220F8126008F10108B045F3D3064807
:104A100050F824006843C8E76D1E002DDADA4FF025
:104A2000FF30C2E770000020B44D0008A84D000818
:104A300010B501460023002207E00B4850F8210082
:104A400030F8120000B15B1C521C084850F82100DD
:104A50009042F2D864205843044C54F82140B0FBF3
:104A6000F4F0C0B210BD000064000020A84D0008A2
:104A700070B504460E4631462046FFF785FF0546D1
:104A8000681C08B9002070BD024850F82400284472
:104A9000F9E700005800002030B5034601E003F8B4
:104AA000011B141EA2F10102F9D130BD2DE9F0471E
:104AB00005460E461746022E02D36869B04202D858
:104AC0004FF002088AE02878012804D0022841D05B
:104AD00003287DD154E0B14609EB5909286A00EB5F
:104AE00059212846FFF714FF8046B8F1000F00D087
:104AF00071E0C9F3080105F130000C1806F001005F
:104B000020B1F9B2207861F31F1000E03846207020
:104B100009F1010901202871286A00EB5921284672
:104B2000FFF7F6FE8046B8F1000F00D053E0C9F35E
:104B3000080105F130000C1806F0010010B1C7F3B0
:104B4000071005E0207800F0F000C7F303210843C8
:104B5000207040E0286A00EB16212846FFF7D8FEB7
:104B60008046B8F1000F00D035E040F2FF1000EAB7
:104B7000460105F130000C182770380A60702AE0F1
:104B8000286A00EBD6112846FFF7C2FE8046B8F12E
:104B9000000F00D01FE040F2FF1000EA860105F18F
:104BA00030000C18E0780006A17840EA01406178F6
:104BB00040EA01202178084300F070400743277045
:104BC000380A6070380CA070380EE07003E0FFE720
:104BD0004FF0020800BF00BF012028714046BDE829
:104BE000F0872DE9F04104460E46022E02D360699B
:104BF000B04201D8022727E0002721E031462046B5
:104C0000FFF736FB054605B91DE0012D01D102274E
:104C100019E0681C08B9012715E00022314620463A
:104C2000FFF744FF074607B10DE02069401C30B193
:104C30002069401C2061607940F0010060712E46BF
:104C40006069B042DAD800BF3846BDE8F0818176AD
:104C50000B0AC3760A0C02750B0E4375704770B5CC
:104C60000446204600F05FF80546002D59D1207813
:104C700003284FD1607901284CD14202002104F170
:104C80003000FFF73BFE552184F82E12AA2184F84C
:104C90002F12522084F83000522131200155612119
:104CA00032200155412133200155722184F814121C
:104CB00084F81512412184F81612612184F8171224
:104CC000217C84F81812208A010A84F819122069BC
:104CD000010C84F81A122069010E84F81B12217B42
:104CE00084F81C12A089010A84F81D12E068010CE6
:104CF00084F81E12E068010E84F81F12E069401C5F
:104D0000E0626078012304F13001E26AFEF774FC8E
:104D100000206071607800221146FEF7E1FB00B1CF
:104D20000125284670BD70B504462079F8B1E56AC2
:104D3000607801232A4604F13001FEF75DFC08B1DA
:104D4000012070BD00202071206A281AA1698842C4
:104D50000DD2E67809E0A0690544607801232A466F
:104D600004F13001FEF748FC761E022EF3D200203B
:104D7000E7E770B505462C464CB1206838B120688D
:104D8000007820B12068C088A188884201D009201D
:104D900070BD21684878FEF72CFC00F0010008B1D6
:104DA0000320F5E70020F3E7800C00000078000006
:104DB000800700002000000020000000200000000C
:104DC0000090010000000F0000F00000EC4D000812
:104DD0000000002088000000F82B0008744E000836
:104DE0008800002058D20100082C000800000000B4
:104DF00000000000000000000000000000000000B3
:104E000000000000000000000000000000000000A2
:104E10000000000000000000010000000000000091
:104E20000000000000600000000000000000000022
:104E300000000000000000000000000045490008DC
:104E4000314A0008E0250020000000680000001042
:104E5000E0B5012000000F6800F000100000000025
:104E60000000000001020304010203040607080910
:044E7000000000003E
:040000050800018965
:00000001FF
